:100000000209103099FDC2998F99220200269000B2
:0D001000F9E0FCA3E0FDA3E0FEA3E0FF2269
:10002300020AACC0E0C0F0C083C082C0D075D0006B
:10003300C000C001C002C003C004C005C006C007A1
:100043009000F7E0F58CA3E0F58A5388DF120A15D8
:10005300D007D006D005D004D003D002D001D00001
:10006300D0D0D082D083D0F0D0E03275910153B19B
:05007300F743B2082272
:10007B00020A42E50D24D2F582E43400F583E00553
:10008B000D229000CF3010039000D2E475F00112D6
:10009B00068502066C2009E97F2ED2098018EF54E1
:1000AB000F2490D43440D4FF300D0BEF24BFB41A7F
:1000BB000050032461FFE50E6002150E0511E511DA
:1000CB007002051030100E9000CFE475F00112068F
:1000DB0085EF0204100200037403D2108003E4C204
:1000EB0010F50D9000CF12069CE4F50EF510F511EE
:1000FB00E50E60077F201200C180F5750FFFC20A65
:10010B00C209C20BC20CC20EC20FC21112008DFF6C
:10011B00700D3010057F001200D2AF11AE1022B45B
:10012B00255FC2D5C20D12008DFF24D0B40A00503A
:10013B001A75F00A780E30D50508B6FF0106C6A46D
:10014B0026F620D5047002D20C80D924CFB41A0025
:10015B00EF5004C2E5D20D0202D3D20A80C6D209F7
:10016B0080C0D20B80BCD2D580BAD20E80B47F2097
:10017B001200C1200B077401B50E0040F112007E76
:10018B00FF1200C10200FBD211D20F809512007E2C
:10019B00FB12007EFA12007EF94A4B700679A47AA4
:1001AB00037BFF200B2EE50E602A7E008E8275836B
:1001BB00001203E360060EEE650F70F0C2D5EBC0C4
:1001CB00E0EAC0E0E9C0E0EE12031AD0E0F9D0E0BB
:1001DB00FAD0E0FB12066CFF60AAEBC0E0EAC0E0CD
:1001EB00E9C0E01200C1D0E02401F9D0E03400FAFC
:1001FB00D0E0FBE50F0460DCD50FD980877BFF7A5D
:10020B00037916D20B809C791080027908C20FC239
:10021B00118008D2D5790A8004790AC2D5E50F047A
:10022B007002F50FE4FAFDFEFF12007EFC7B082046
:10023B000A1312007EFD7B1030090A12007EFE129B
:10024B00007EFF7B20EC3382D592D55013C3E43074
:10025B0009069FFFE49EFEE4200A039DFDE49CFC3F
:10026B00E4CBF8C20AEC700CCFCECDCCE824F8F876
:10027B0070F38017C3EF33FFEE33FEED33FDEC333A
:10028B00FCEB33FB994002FB0FD8E9EB300A05F886
:10029B00D0E0C448B20AC0E00AEC4D4E4F78207B48
:1002AB000070C2EAB50F0040BCC0E012031CD0F0D6
:1002BB00D0E0200A04C4C0E0C4B20AC0F01200AA05
:1002CB00D0F0D5F0EB0200FB1206A50198530212F9
:1002DB005801694C01654202164F021E44021E4929
:1002EB00017E4302245502084602084502084703D3
:1002FB00C450016D2D01712E01942B0175230192B8
:10030B002003AD2A012D480000018C3F3F3F0079AF
:10031B000AA2D5200C14300E09B910020404B90836
:10032B000104A2D5200F02500104200B68920BB5DB
:10033B000E005034C0E07F20300C197F30A20B72BE
:10034B000F720E500F120373C20BC20FC20EC211EB
:10035B007F30800F300E03E9C0E01200C1300E0376
:10036B00D0E0F9D0E0B50ECC300E177F30B9100CC1
:10037B001200C17F58300D077F788003B908031234
:10038B0000C1300B057F2D0200C17F202011F87FAB
:10039B002B200FF322920B80CF286E756C6C2900EB
:1003AB00D20A12007E300AF8C20A780E30D5010844
:1003BB00F602012D2D5043495812007E2403B4053B
:1003CB00004001E49003BF931200B2743A1200B2E2
:1003DB00D20C750E04020212BB010CE58229F582C8
:1003EB00E5833AF583E0225006E92582F8E622BB45
:1003FB00FE06E92582F8E222E58229F582E5833AB9
:10040B00F583E49322BB010689828A83F022500292
:10041B00F722BBFE01F322F8BB010DE58229F58221
:10042B00E5833AF583E8F0225006E92582C8F622E7
:10043B00BBFE05E92582C8F222EF8DF0A4A8F0CF10
:10044B008CF0A428CE8DF0A42EFE22BC000BBE0097
:10045B0029EF8DF084FFADF022E4CCF875F008EFB6
:10046B002FFFEE33FEEC33FCEE9DEC984005FCEEDB
:10047B009DFE0FD5F0E9E4CEFD22EDF8F5F0EE840C
:10048B0020D21CFEADF075F008EF2FFFED33FD40D1
:10049B0007985006D5F0F222C398FD0FD5F0EA224B
:1004AB00A3F8E0C5F025F0F0E58215827002158304
:1004BB00E0C838F0E822E88FF0A4CC8BF0A42CFC39
:1004CB00E98EF0A42CFC8AF0EDA42CFCEA8EF0A4AF
:1004DB00CDA8F08BF0A42DCC3825F0FDE98FF0A43E
:1004EB002CCD35F0FCEB8EF0A4FEA9F0EB8FF0A435
:1004FB00CFC5F02ECD39FEE43CFCEAA42DCE35F071
:10050B00FDE43CFC2275F008758200EF2FFFEE3303
:10051B00FECD33CDCC33CCC58233C5829BED9AEC6B
:10052B0099E58298400CF582EE9BFEED9AFDEC99D5
:10053B00FC0FD5F0D6E4CEFBE4CDFAE4CCF9A882DF
:10054B0022B800C1B90059BA002DEC8BF084CFCE84
:10055B00CDFCE5F0CBF97818EF2FFFEE33FEED3342
:10056B00FDEC33FCEB33FB10D703994004EB99FB09
:10057B000FD8E5E4F9FA227818EF2FFFEE33FEEDF2
:10058B0033FDEC33FCC933C910D7059BE99A4007FF
:10059B00EC9BFCE99AF90FD8E0E4C9FAE4CCFB2216
:1005AB0075F010EF2FFFEE33FEED33FDCC33CCC8DF
:1005BB0033C810D7079BEC9AE899400AED9BFDECEA
:1005CB009AFCE899F80FD5F0DAE4CDFBE4CCFAE429
:1005DB00C8F922EB9FF5F0EA9E42F0E99D42F0E864
:1005EB009C45F022E8600FECC313FCED13FDEE13FA
:1005FB00FEEF13FFD8F122ECF0A3EDF0A3EEF0A386
:10060B00EFF022A8828583F0D083D08212062512C8
:10061B000625120625120625E473E493A3C583C5AC
:10062B00F0C583C8C582C8F0A3C583C5F0C583C810
:10063B00C582C822D083D082F8E4937012740193E0
:10064B00700DA3A393F8740193F5828883E47374FC
:10065B000293B5F0067403936860E9A3A3A3A38088
:10066B00D8BB010689828A83E0225002E722BBFEB7
:10067B0002E32289828A83E49322F8E0FBA3A3E0BE
:10068B00F925F0F0E582158270021583E0FA38F057
:10069B0022EBF0A3EAF0A3E9F022D083D082F8E4B6
:1006AB00937012740193700DA3A393F8740193F5D7
:1006BB00828883E4737402936860EFA3A3A380DF43
:1006CB009000CF1206029000D3E024FE605D147000
:1006DB00030207C324FD600D1470030207C3240635
:1006EB006003020847E4F5917598504389204387CE
:1006FB0080F591438E10F59153C4DF7B10FAF9F816
:10070B009000CFE0FCA3E0FDA3E0FEA3E0FF120509
:10071B004C9000D4E0F8A3E0F9A3E0FAA3E0FB12BD
:10072B00054CEFF404F58D43884022E4F591759860
:10073B005043878053C4F8F59143C4207B10FAF9DA
:10074B00F89000CFE0FCA3E0FDA3E0FEA3E0FF12D6
:10075B00054C9000D4E0F8A3E0F9A3E0FAA3E0FB8A
:10076B0012054CC3E49FFFE49EFE74019DFDE49CC7
:10077B00FC78081205EF8FC6E47B10FAF9F89000AD
:10078B00CFE0FCA3E0FDA3E0FEA3E0FF12054C903D
:10079B0000D4E0F8A3E0F9A3E0FAA3E0FB12054CC8
:1007AB00C3E49FFFE49EFE74019DFDE49CFCEFE41B
:1007BB008FC5F59143C40822E4F59175F85075C4C3
:1007CB00887B10FAF9F89000CFE0FCA3E0FDA3E0E2
:1007DB00FEA3E0FF12054C9000D4E0F8A3E0F9A3D0
:1007EB00E0FAA3E0FB12054CC3E49FFFE49EFE740A
:1007FB00019DFDE49CFC78081205EF8FC6E47B108D
:10080B00FAF9F89000CFE0FCA3E0FDA3E0FEA3E033
:10081B00FF12054C9000D4E0F8A3E0F9A3E0FAA393
:10082B00E0FB12054CC3E49FFFE49EFE74019DFDAB
:10083B00E49CFCEFE48FC5F59143C40822AD07ACF3
:10084B0006E4F591A2AF9216C2AF75C7AA75C7554C
:10085B00439F01A21692AFEDF5A6ECF5A7E4F5AF19
:10086B0090009EF090009EE0FFC39408502FE4F59B
:10087B00AEF591A2AF9216C2AF75C7AA75C7554315
:10088B00A401A21692AF749F2FF582E43400F58376
:10089B00E5AEF005A690009EE004F080C7E4F5916C
:1008AB00A2AF9216C2AF75C7AA75C755539FFEA2CA
:1008BB001692AF7BFF7A0B796EED9000D2F0ECA322
:1008CB00F01200E9E490009EF090009EE0FFC394CC
:1008DB000750207BFF7A0B7987749F2FF582E434C6
:1008EB0000F583E09000D2F01200E990009EE00446
:1008FB00F080D67BFF7A0B798E9000A6E09000D229
:10090B00F01200E922787FE4F6D8FD9000007FFF1B
:10091B007E10E4F0A3DFFCDEFA7581140209650298
:10092B000AE8E493A3F8E493A34003F68001F208EA
:10093B00DFF48029E493A3F85407240CC8C333C411
:10094B00540F4420C8834004F456800146F6DFE47C
:10095B00800B0102040810204080900ACBE47E013A
:10096B009360BCA3FF543F30E509541FFEE493A3EF
:10097B0060010ECF54C025E060A840B8E493A3FA01
:10098B00E493A3F8E493A3C8C582C8CAC583CAF08D
:10099B00A3C8C582C8CAC583CADFE9DEE780BE75B6
:1009AB00910253F60F43F66075910153C2FD53C389
:1009BB00FD9000D37402F0A312060E0001C2007F5B
:1009CB00007E367D6E7C011206CB439802D2127BE1
:1009DB00FF7A0B79981200E922E49000CFF0A3F094
:1009EB00F5915389F0438901F591538EF79000F7F8
:1009FB0074F8F0A37430F09000F7E0F58CA3E0F5F9
:100A0B008A43A802D2AF43881022120A8C12000E1E
:100A1B00E47BE87A03F9F812054CAC00AD01AE02A9
:100A2B00AF03E4FBFAF9F8C31205DE7006FF7E7C18
:100A3B0012084812000E22C0E0C083C082C0913061
:100A4B00F80AD215900102E59AF0C2F830F90520A8
:100A5B001302C2F9D091D082D083D0E032759101CC
:100A6B00E4F5B1F5B2F5B3F5B4F5B5F5B6F5C2F5F8
:100A7B00C3F5B9F5BAF5BDF5BE759102F584F585EB
:100A8B00229000F9E0FCA3E0FDA3E0FEA3E024012B
:100A9B00FFE43EFEE43DFDE43CFC9000F91206024F
:100AAB0022C0E0C083C082C09130980BD214900159
:100ABB0001E599F05398FED091D082D083D0E032EB
:100ACB004100F7004100F8004400FD000000004425
:100ADB0000F900000000C112C113C11400120A6812
:100AEB001209AA12006E1209E480FE226572726F5F
:100AFB007220696478203A20253464203A203078BB
:100B0B00253258202C2030782532580D0A00636F7F
:100B1B006D706172655F6275666665722066696E7F
:100B2B00697368200D0A0064756D705F6275666687
:100B3B006572203A202532640D0A00307825325830
:100B4B002C000D0A000D0A0D0A00307825303458A0
:100B5B002020002530325820002020002563002E55
:100B6B00000A0056616C75652028307825425820A4
:100B7B002C20307825425829203A20002030782527
:100B8B00425800203078254258200D0A005541521A
:0A0B9B0054305F496E69740D0A00C2
:00000001FF
